{
  "_format": "hh-sol-artifact-1",
  "contractName": "VoterDataMerkle",
  "sourceName": "contracts/VoterDataMerkle.sol",
  "abi": [
    {
      "inputs": [
        {
          "internalType": "uint256",
          "name": "_votingId",
          "type": "uint256"
        },
        {
          "internalType": "bytes32",
          "name": "_leaf",
          "type": "bytes32"
        },
        {
          "internalType": "bytes32",
          "name": "_newRoot",
          "type": "bytes32"
        },
        {
          "internalType": "address",
          "name": "_voter",
          "type": "address"
        }
      ],
      "name": "addLeaf",
      "outputs": [],
      "stateMutability": "nonpayable",
      "type": "function"
    },
    {
      "inputs": [
        {
          "internalType": "address",
          "name": "",
          "type": "address"
        }
      ],
      "name": "addressToLeave",
      "outputs": [
        {
          "internalType": "bytes32",
          "name": "",
          "type": "bytes32"
        }
      ],
      "stateMutability": "view",
      "type": "function"
    },
    {
      "inputs": [
        {
          "internalType": "uint256",
          "name": "_votingId",
          "type": "uint256"
        },
        {
          "internalType": "bytes32",
          "name": "_leaf",
          "type": "bytes32"
        },
        {
          "internalType": "address",
          "name": "_voter",
          "type": "address"
        }
      ],
      "name": "checkLeaf",
      "outputs": [
        {
          "internalType": "bool",
          "name": "",
          "type": "bool"
        }
      ],
      "stateMutability": "view",
      "type": "function"
    },
    {
      "inputs": [
        {
          "internalType": "address",
          "name": "_voter",
          "type": "address"
        }
      ],
      "name": "getLeaves",
      "outputs": [
        {
          "internalType": "bytes32",
          "name": "",
          "type": "bytes32"
        }
      ],
      "stateMutability": "view",
      "type": "function"
    },
    {
      "inputs": [
        {
          "internalType": "address",
          "name": "",
          "type": "address"
        }
      ],
      "name": "ownedLeaf",
      "outputs": [
        {
          "internalType": "uint256",
          "name": "",
          "type": "uint256"
        }
      ],
      "stateMutability": "view",
      "type": "function"
    },
    {
      "inputs": [
        {
          "internalType": "uint256",
          "name": "_votingId",
          "type": "uint256"
        },
        {
          "internalType": "bytes32",
          "name": "_root",
          "type": "bytes32"
        }
      ],
      "name": "setRoot",
      "outputs": [],
      "stateMutability": "nonpayable",
      "type": "function"
    },
    {
      "inputs": [
        {
          "internalType": "uint256",
          "name": "_votingId",
          "type": "uint256"
        },
        {
          "internalType": "bytes32[]",
          "name": "proof",
          "type": "bytes32[]"
        },
        {
          "internalType": "bytes32",
          "name": "leaf",
          "type": "bytes32"
        }
      ],
      "name": "verify",
      "outputs": [
        {
          "internalType": "bool",
          "name": "",
          "type": "bool"
        }
      ],
      "stateMutability": "view",
      "type": "function"
    },
    {
      "inputs": [
        {
          "internalType": "uint256",
          "name": "",
          "type": "uint256"
        },
        {
          "internalType": "uint256",
          "name": "",
          "type": "uint256"
        }
      ],
      "name": "votingToLeaves",
      "outputs": [
        {
          "internalType": "bytes32",
          "name": "",
          "type": "bytes32"
        }
      ],
      "stateMutability": "view",
      "type": "function"
    },
    {
      "inputs": [
        {
          "internalType": "uint256",
          "name": "",
          "type": "uint256"
        }
      ],
      "name": "votingToRoot",
      "outputs": [
        {
          "internalType": "bytes32",
          "name": "",
          "type": "bytes32"
        }
      ],
      "stateMutability": "view",
      "type": "function"
    }
  ],
  "bytecode": "0x608060405234801561001057600080fd5b50610b8b806100206000396000f3fe608060405234801561001057600080fd5b50600436106100935760003560e01c806362506e721161006657806362506e721461014457806366b45eed1461017457806370db1754146101a4578063812a8824146101d4578063835d6c2d146101f057610093565b8063048f06f214610098578063167580cc146100b4578063382a22ab146100e45780633e39d64114610114575b600080fd5b6100b260048036038101906100ad91906107fb565b610220565b005b6100ce60048036038101906100c9919061078f565b61023b565b6040516100db9190610975565b60405180910390f35b6100fe60048036038101906100f991906108e9565b6102aa565b60405161010b9190610990565b60405180910390f35b61012e6004803603810190610129919061073d565b6102db565b60405161013b9190610990565b60405180910390f35b61015e60048036038101906101599190610766565b6102f3565b60405161016b9190610990565b60405180910390f35b61018e6004803603810190610189919061073d565b61030b565b60405161019b9190610990565b60405180910390f35b6101be60048036038101906101b99190610837565b610359565b6040516101cb9190610975565b60405180910390f35b6101ee60048036038101906101e99190610886565b6104a0565b005b61020a6004803603810190610205919061073d565b6105d3565b60405161021791906109cb565b60405180910390f35b80600080848152602001908152602001600020819055505050565b60008060008087815260200190815260200160002054905061029f858580806020026020016040519081016040528093929190818152602001838360200280828437600081840152601f19601f8201169050808301925050505050505082856105eb565b915050949350505050565b600160205281600052604060002081815481106102c657600080fd5b90600052602060002001600091509150505481565b60026020528060005260406000206000915090505481565b60006020528060005260406000206000915090505481565b600080600260008473ffffffffffffffffffffffffffffffffffffffff1673ffffffffffffffffffffffffffffffffffffffff16815260200190815260200160002054905080915050919050565b6000806000600160008781526020019081526020016000208054806020026020016040519081016040528092919081815260200182805480156103bb57602002820191906000526020600020905b8154815260200190600101908083116103a7575b5050505050905060008151905060008114156103da5760019250610493565b60005b81811015610491578683828151811061041f577f4e487b7100000000000000000000000000000000000000000000000000000000600052603260045260246000fd5b60200260200101511415801561047457506000600360008873ffffffffffffffffffffffffffffffffffffffff1673ffffffffffffffffffffffffffffffffffffffff16815260200190815260200160002054145b1561047e57600193505b808061048990610a49565b9150506103dd565b505b8293505050509392505050565b60006104ad858584610359565b9050806104ef576040517f08c379a00000000000000000000000000000000000000000000000000000000081526004016104e6906109ab565b60405180910390fd5b6001600086815260200190815260200160002084908060018154018082558091505060019003906000526020600020016000909190919091505583600260008473ffffffffffffffffffffffffffffffffffffffff1673ffffffffffffffffffffffffffffffffffffffff168152602001908152602001600020819055506105778584610220565b600360008373ffffffffffffffffffffffffffffffffffffffff1673ffffffffffffffffffffffffffffffffffffffff16815260200190815260200160002060008154809291906105c790610a49565b91905055505050505050565b60036020528060005260406000206000915090505481565b6000826105f88584610602565b1490509392505050565b60008082905060005b845181101561069257600085828151811061064f577f4e487b7100000000000000000000000000000000000000000000000000000000600052603260045260246000fd5b602002602001015190508083116106715761066a838261069d565b925061067e565b61067b818461069d565b92505b50808061068a90610a49565b91505061060b565b508091505092915050565b600082600052816020526040600020905092915050565b6000813590506106c381610b10565b92915050565b60008083601f8401126106db57600080fd5b8235905067ffffffffffffffff8111156106f457600080fd5b60208301915083602082028301111561070c57600080fd5b9250929050565b60008135905061072281610b27565b92915050565b60008135905061073781610b3e565b92915050565b60006020828403121561074f57600080fd5b600061075d848285016106b4565b91505092915050565b60006020828403121561077857600080fd5b600061078684828501610728565b91505092915050565b600080600080606085870312156107a557600080fd5b60006107b387828801610728565b945050602085013567ffffffffffffffff8111156107d057600080fd5b6107dc878288016106c9565b935093505060406107ef87828801610713565b91505092959194509250565b6000806040838503121561080e57600080fd5b600061081c85828601610728565b925050602061082d85828601610713565b9150509250929050565b60008060006060848603121561084c57600080fd5b600061085a86828701610728565b935050602061086b86828701610713565b925050604061087c868287016106b4565b9150509250925092565b6000806000806080858703121561089c57600080fd5b60006108aa87828801610728565b94505060206108bb87828801610713565b93505060406108cc87828801610713565b92505060606108dd878288016106b4565b91505092959194509250565b600080604083850312156108fc57600080fd5b600061090a85828601610728565b925050602061091b85828601610728565b9150509250929050565b61092e81610a09565b82525050565b61093d81610a15565b82525050565b60006109506023836109e6565b915061095b82610ac1565b604082019050919050565b61096f81610a3f565b82525050565b600060208201905061098a6000830184610925565b92915050565b60006020820190506109a56000830184610934565b92915050565b600060208201905081810360008301526109c481610943565b9050919050565b60006020820190506109e06000830184610966565b92915050565b600082825260208201905092915050565b6000610a0282610a1f565b9050919050565b60008115159050919050565b6000819050919050565b600073ffffffffffffffffffffffffffffffffffffffff82169050919050565b6000819050919050565b6000610a5482610a3f565b91507fffffffffffffffffffffffffffffffffffffffffffffffffffffffffffffffff821415610a8757610a86610a92565b5b600182019050919050565b7f4e487b7100000000000000000000000000000000000000000000000000000000600052601160045260246000fd5b7f6c65616620616e6420616464726573732063616e74206265207573656420747760008201527f6963650000000000000000000000000000000000000000000000000000000000602082015250565b610b19816109f7565b8114610b2457600080fd5b50565b610b3081610a15565b8114610b3b57600080fd5b50565b610b4781610a3f565b8114610b5257600080fd5b5056fea26469706673582212204b7736f17ea0ce2d045d1390187329058c5521ad7deaa26e4f046adc535b191464736f6c63430008040033",
  "linkReferences": {},
  "deployedLinkReferences": {}
}