{
  "_format": "hh-sol-artifact-1",
  "contractName": "Voting",
  "sourceName": "contracts/Voting.sol",
  "abi": [
    {
      "anonymous": false,
      "inputs": [
        {
          "indexed": true,
          "internalType": "address",
          "name": "previousOwner",
          "type": "address"
        },
        {
          "indexed": true,
          "internalType": "address",
          "name": "newOwner",
          "type": "address"
        }
      ],
      "name": "OwnershipTransferred",
      "type": "event"
    },
    {
      "inputs": [
        {
          "internalType": "address",
          "name": "_voter",
          "type": "address"
        },
        {
          "internalType": "uint256",
          "name": "_votingId",
          "type": "uint256"
        },
        {
          "internalType": "uint256",
          "name": "_candidateId",
          "type": "uint256"
        },
        {
          "internalType": "uint256",
          "name": "_timeStamp",
          "type": "uint256"
        }
      ],
      "name": "addVoterHistory",
      "outputs": [],
      "stateMutability": "nonpayable",
      "type": "function"
    },
    {
      "inputs": [
        {
          "internalType": "bytes32",
          "name": "_title",
          "type": "bytes32"
        },
        {
          "internalType": "uint256",
          "name": "_duration",
          "type": "uint256"
        },
        {
          "internalType": "uint256",
          "name": "_startTime",
          "type": "uint256"
        },
        {
          "internalType": "uint256",
          "name": "_roomId",
          "type": "uint256"
        },
        {
          "internalType": "bytes32[]",
          "name": "_candidates",
          "type": "bytes32[]"
        }
      ],
      "name": "createVoting",
      "outputs": [],
      "stateMutability": "nonpayable",
      "type": "function"
    },
    {
      "inputs": [
        {
          "internalType": "uint256",
          "name": "_votingId",
          "type": "uint256"
        }
      ],
      "name": "getCandidates",
      "outputs": [
        {
          "components": [
            {
              "internalType": "uint256",
              "name": "candidateId",
              "type": "uint256"
            },
            {
              "internalType": "bytes32",
              "name": "candidate",
              "type": "bytes32"
            },
            {
              "internalType": "uint256",
              "name": "votes",
              "type": "uint256"
            }
          ],
          "internalType": "struct Voting.Candidate[]",
          "name": "candidates",
          "type": "tuple[]"
        }
      ],
      "stateMutability": "view",
      "type": "function"
    },
    {
      "inputs": [
        {
          "internalType": "uint256",
          "name": "_votingId",
          "type": "uint256"
        }
      ],
      "name": "getHistory",
      "outputs": [
        {
          "components": [
            {
              "internalType": "address",
              "name": "voter",
              "type": "address"
            },
            {
              "internalType": "uint256",
              "name": "candidateId",
              "type": "uint256"
            },
            {
              "internalType": "uint256",
              "name": "timeStamp",
              "type": "uint256"
            }
          ],
          "internalType": "struct Voting.History[]",
          "name": "history",
          "type": "tuple[]"
        }
      ],
      "stateMutability": "view",
      "type": "function"
    },
    {
      "inputs": [
        {
          "internalType": "address",
          "name": "_voter",
          "type": "address"
        }
      ],
      "name": "getVoterHistory",
      "outputs": [
        {
          "components": [
            {
              "internalType": "uint256",
              "name": "votingId",
              "type": "uint256"
            },
            {
              "internalType": "uint256",
              "name": "candidateId",
              "type": "uint256"
            },
            {
              "internalType": "uint256",
              "name": "timeStamp",
              "type": "uint256"
            }
          ],
          "internalType": "struct Voting.voterHistory[]",
          "name": "",
          "type": "tuple[]"
        }
      ],
      "stateMutability": "view",
      "type": "function"
    },
    {
      "inputs": [],
      "name": "owner",
      "outputs": [
        {
          "internalType": "address",
          "name": "",
          "type": "address"
        }
      ],
      "stateMutability": "view",
      "type": "function"
    },
    {
      "inputs": [],
      "name": "renounceOwnership",
      "outputs": [],
      "stateMutability": "nonpayable",
      "type": "function"
    },
    {
      "inputs": [
        {
          "internalType": "address",
          "name": "newOwner",
          "type": "address"
        }
      ],
      "name": "transferOwnership",
      "outputs": [],
      "stateMutability": "nonpayable",
      "type": "function"
    },
    {
      "inputs": [
        {
          "internalType": "uint256",
          "name": "_votingId",
          "type": "uint256"
        },
        {
          "internalType": "bool",
          "name": "_isVerified",
          "type": "bool"
        }
      ],
      "name": "verifyVoter",
      "outputs": [],
      "stateMutability": "nonpayable",
      "type": "function"
    },
    {
      "inputs": [
        {
          "internalType": "uint256",
          "name": "_votingId",
          "type": "uint256"
        },
        {
          "internalType": "address",
          "name": "_voter",
          "type": "address"
        },
        {
          "internalType": "uint256",
          "name": "_candidate",
          "type": "uint256"
        }
      ],
      "name": "vote",
      "outputs": [],
      "stateMutability": "nonpayable",
      "type": "function"
    },
    {
      "inputs": [
        {
          "internalType": "address",
          "name": "",
          "type": "address"
        },
        {
          "internalType": "uint256",
          "name": "",
          "type": "uint256"
        }
      ],
      "name": "voterToHistory",
      "outputs": [
        {
          "internalType": "uint256",
          "name": "votingId",
          "type": "uint256"
        },
        {
          "internalType": "uint256",
          "name": "candidateId",
          "type": "uint256"
        },
        {
          "internalType": "uint256",
          "name": "timeStamp",
          "type": "uint256"
        }
      ],
      "stateMutability": "view",
      "type": "function"
    },
    {
      "inputs": [
        {
          "internalType": "uint256",
          "name": "",
          "type": "uint256"
        },
        {
          "internalType": "uint256",
          "name": "",
          "type": "uint256"
        }
      ],
      "name": "voterVerified",
      "outputs": [
        {
          "internalType": "address",
          "name": "",
          "type": "address"
        }
      ],
      "stateMutability": "view",
      "type": "function"
    },
    {
      "inputs": [],
      "name": "votingCount",
      "outputs": [
        {
          "internalType": "uint256",
          "name": "",
          "type": "uint256"
        }
      ],
      "stateMutability": "view",
      "type": "function"
    },
    {
      "inputs": [
        {
          "internalType": "uint256",
          "name": "",
          "type": "uint256"
        }
      ],
      "name": "votingDetails",
      "outputs": [
        {
          "internalType": "bytes32",
          "name": "title",
          "type": "bytes32"
        },
        {
          "internalType": "uint256",
          "name": "duration",
          "type": "uint256"
        },
        {
          "internalType": "uint256",
          "name": "startTime",
          "type": "uint256"
        },
        {
          "internalType": "uint256",
          "name": "roomId",
          "type": "uint256"
        },
        {
          "internalType": "address",
          "name": "proposer",
          "type": "address"
        }
      ],
      "stateMutability": "view",
      "type": "function"
    },
    {
      "inputs": [
        {
          "internalType": "uint256",
          "name": "",
          "type": "uint256"
        },
        {
          "internalType": "uint256",
          "name": "",
          "type": "uint256"
        }
      ],
      "name": "votingHistory",
      "outputs": [
        {
          "internalType": "address",
          "name": "voter",
          "type": "address"
        },
        {
          "internalType": "uint256",
          "name": "candidateId",
          "type": "uint256"
        },
        {
          "internalType": "uint256",
          "name": "timeStamp",
          "type": "uint256"
        }
      ],
      "stateMutability": "view",
      "type": "function"
    }
  ],
  "bytecode": "0x60806040526001805534801561001457600080fd5b5061003161002661003660201b60201c565b61003e60201b60201c565b610102565b600033905090565b60008060009054906101000a900473ffffffffffffffffffffffffffffffffffffffff169050816000806101000a81548173ffffffffffffffffffffffffffffffffffffffff021916908373ffffffffffffffffffffffffffffffffffffffff1602179055508173ffffffffffffffffffffffffffffffffffffffff168173ffffffffffffffffffffffffffffffffffffffff167f8be0079c531659141344cd1fd0a4f28419497f9722a3daafe3b4186f6b6457e060405160405180910390a35050565b6122fb80620001126000396000f3fe608060405234801561001057600080fd5b50600436106100f55760003560e01c80638da5cb5b11610097578063c8691b2a11610066578063c8691b2a14610288578063e6644d69146102b8578063f2fde38b146102ec578063facb974914610308576100f5565b80638da5cb5b14610200578063a0a1174b1461021e578063b424ab841461023a578063be9f9e7914610258576100f5565b8063448b5daf116100d3578063448b5daf146101765780634de8737c146101a857806356a256c6146101c4578063715018a6146101f6576100f5565b80630925f368146100fa578063094e271b1461012a5780633e39a7a514610146575b600080fd5b610114600480360381019061010f9190611846565b610324565b6040516101219190611c1c565b60405180910390f35b610144600480360381019061013f9190611700565b610372565b005b610160600480360381019061015b9190611792565b610587565b60405161016d9190611c6e565b60405180910390f35b610190600480360381019061018b9190611661565b61061a565b60405161019f93929190611e42565b60405180910390f35b6101c260048036038101906101bd91906117bb565b610661565b005b6101de60048036038101906101d99190611846565b610b22565b6040516101ed93929190611c37565b60405180910390f35b6101fe610b89565b005b610208610c11565b6040516102159190611c1c565b60405180910390f35b6102386004803603810190610233919061169d565b610c3a565b005b610242610ce3565b60405161024f9190611e27565b60405180910390f35b610272600480360381019061026d9190611638565b610ce9565b60405161027f9190611cb2565b60405180910390f35b6102a2600480360381019061029d9190611792565b610dab565b6040516102af9190611c90565b60405180910390f35b6102d260048036038101906102cd9190611792565b610e87565b6040516102e3959493929190611cd4565b60405180910390f35b61030660048036038101906103019190611638565b610edd565b005b610322600480360381019061031d919061180a565b610fd5565b005b6004602052816000526040600020818154811061034057600080fd5b906000526020600020016000915091509054906101000a900473ffffffffffffffffffffffffffffffffffffffff1681565b61037a6110dd565b73ffffffffffffffffffffffffffffffffffffffff16610398610c11565b73ffffffffffffffffffffffffffffffffffffffff16146103ee576040517f08c379a00000000000000000000000000000000000000000000000000000000081526004016103e590611de7565b60405180910390fd5b60006002600060015481526020019081526020016000209050868160000181905550858160010181905550600083839050905060005b818110156104f7576000858583818110610467577f4e487b7100000000000000000000000000000000000000000000000000000000600052603260045260246000fd5b90506020020135905083600201604051806060016040528060018561048c9190611f35565b815260200183815260200160008152509080600181540180825580915050600190039060005260206000209060030201600090919091909150600082015181600001556020820151816001015560408201518160020155505050806104f090612037565b9050610424565b5042610e10876105079190611f8b565b6105119190611f35565b8260030181905550848260040181905550338260050160006101000a81548173ffffffffffffffffffffffffffffffffffffffff021916908373ffffffffffffffffffffffffffffffffffffffff1602179055506001600081548092919061057890612037565b91905055505050505050505050565b606060026000838152602001908152602001600020600201805480602002602001604051908101604052809291908181526020016000905b8282101561060f57838290600052602060002090600302016040518060600160405290816000820154815260200160018201548152602001600282015481525050815260200190600101906105bf565b505050509050919050565b6005602052816000526040600020818154811061063657600080fd5b9060005260206000209060030201600091509150508060000154908060010154908060020154905083565b6000600260008581526020019081526020016000206040518060c0016040529081600082015481526020016001820154815260200160028201805480602002602001604051908101604052809291908181526020016000905b8282101561070a57838290600052602060002090600302016040518060600160405290816000820154815260200160018201548152602001600282015481525050815260200190600101906106ba565b50505050815260200160038201548152602001600482015481526020016005820160009054906101000a900473ffffffffffffffffffffffffffffffffffffffff1673ffffffffffffffffffffffffffffffffffffffff1673ffffffffffffffffffffffffffffffffffffffff16815250509050600061078a85856110e5565b905060006107988686611235565b90506000836060015190506000846020015190506000610e10826107bc9190611f8b565b836107c79190611f35565b90506001151585151514610810576040517f08c379a000000000000000000000000000000000000000000000000000000000815260040161080790611d87565b60405180910390fd5b6000151584151514610857576040517f08c379a000000000000000000000000000000000000000000000000000000000815260040161084e90611d27565b60405180910390fd5b428310610899576040517f08c379a000000000000000000000000000000000000000000000000000000000815260040161089090611e07565b60405180910390fd5b4281116108db576040517f08c379a00000000000000000000000000000000000000000000000000000000081526004016108d290611d67565b60405180910390fd5b60006108e78a896113c6565b90506000600260008c81526020019081526020016000206002019050600181838154811061093e577f4e487b7100000000000000000000000000000000000000000000000000000000600052603260045260246000fd5b90600052602060002090600302016002015461095a9190611f35565b818381548110610993577f4e487b7100000000000000000000000000000000000000000000000000000000600052603260045260246000fd5b906000526020600020906003020160020181905550600360008c815260200190815260200160002060405180606001604052808c73ffffffffffffffffffffffffffffffffffffffff1681526020018b815260200142815250908060018154018082558091505060019003906000526020600020906003020160009091909190915060008201518160000160006101000a81548173ffffffffffffffffffffffffffffffffffffffff021916908373ffffffffffffffffffffffffffffffffffffffff16021790555060208201518160010155604082015181600201555050600560008b73ffffffffffffffffffffffffffffffffffffffff1673ffffffffffffffffffffffffffffffffffffffff16815260200190815260200160002060405180606001604052808d81526020018b815260200142815250908060018154018082558091505060019003906000526020600020906003020160009091909190915060008201518160000155602082015181600101556040820151816002015550505050505050505050505050565b60036020528160005260406000208181548110610b3e57600080fd5b9060005260206000209060030201600091509150508060000160009054906101000a900473ffffffffffffffffffffffffffffffffffffffff16908060010154908060020154905083565b610b916110dd565b73ffffffffffffffffffffffffffffffffffffffff16610baf610c11565b73ffffffffffffffffffffffffffffffffffffffff1614610c05576040517f08c379a0000000000000000000000000000000000000000000000000000000008152600401610bfc90611de7565b60405180910390fd5b610c0f60006114d6565b565b60008060009054906101000a900473ffffffffffffffffffffffffffffffffffffffff16905090565b600560008573ffffffffffffffffffffffffffffffffffffffff1673ffffffffffffffffffffffffffffffffffffffff1681526020019081526020016000206040518060600160405280858152602001848152602001838152509080600181540180825580915050600190039060005260206000209060030201600090919091909150600082015181600001556020820151816001015560408201518160020155505050505050565b60015481565b60606000600560008473ffffffffffffffffffffffffffffffffffffffff1673ffffffffffffffffffffffffffffffffffffffff168152602001908152602001600020805480602002602001604051908101604052809291908181526020016000905b82821015610d9c5783829060005260206000209060030201604051806060016040529081600082015481526020016001820154815260200160028201548152505081526020019060010190610d4c565b50505050905080915050919050565b606060036000838152602001908152602001600020805480602002602001604051908101604052809291908181526020016000905b82821015610e7c57838290600052602060002090600302016040518060600160405290816000820160009054906101000a900473ffffffffffffffffffffffffffffffffffffffff1673ffffffffffffffffffffffffffffffffffffffff1673ffffffffffffffffffffffffffffffffffffffff1681526020016001820154815260200160028201548152505081526020019060010190610de0565b505050509050919050565b60026020528060005260406000206000915090508060000154908060010154908060030154908060040154908060050160009054906101000a900473ffffffffffffffffffffffffffffffffffffffff16905085565b610ee56110dd565b73ffffffffffffffffffffffffffffffffffffffff16610f03610c11565b73ffffffffffffffffffffffffffffffffffffffff1614610f59576040517f08c379a0000000000000000000000000000000000000000000000000000000008152600401610f5090611de7565b60405180910390fd5b600073ffffffffffffffffffffffffffffffffffffffff168173ffffffffffffffffffffffffffffffffffffffff161415610fc9576040517f08c379a0000000000000000000000000000000000000000000000000000000008152600401610fc090611d47565b60405180910390fd5b610fd2816114d6565b50565b6000610fe183336110e5565b905081611023576040517f08c379a000000000000000000000000000000000000000000000000000000000815260040161101a90611dc7565b60405180910390fd5b8015611064576040517f08c379a000000000000000000000000000000000000000000000000000000000815260040161105b90611da7565b60405180910390fd5b60046000848152602001908152602001600020339080600181540180825580915050600190039060005260206000200160009091909190916101000a81548173ffffffffffffffffffffffffffffffffffffffff021916908373ffffffffffffffffffffffffffffffffffffffff160217905550505050565b600033905090565b6000806004600085815260200190815260200160002080548060200260200160405190810160405280929190818152602001828054801561117b57602002820191906000526020600020905b8160009054906101000a900473ffffffffffffffffffffffffffffffffffffffff1673ffffffffffffffffffffffffffffffffffffffff1681526020019060010190808311611131575b5050505050905060008151905060005b8181101561122c5760008382815181106111ce577f4e487b7100000000000000000000000000000000000000000000000000000000600052603260045260246000fd5b602002602001015190508573ffffffffffffffffffffffffffffffffffffffff168173ffffffffffffffffffffffffffffffffffffffff161415611215576001945061121a565b600094505b508061122590612037565b905061118b565b50505092915050565b60008060036000858152602001908152602001600020805480602002602001604051908101604052809291908181526020016000905b8282101561130757838290600052602060002090600302016040518060600160405290816000820160009054906101000a900473ffffffffffffffffffffffffffffffffffffffff1673ffffffffffffffffffffffffffffffffffffffff1673ffffffffffffffffffffffffffffffffffffffff168152602001600182015481526020016002820154815250508152602001906001019061126b565b50505050905060008151905060005b818110156113bd576000838281518110611359577f4e487b7100000000000000000000000000000000000000000000000000000000600052603260045260246000fd5b60200260200101516000015190508573ffffffffffffffffffffffffffffffffffffffff168173ffffffffffffffffffffffffffffffffffffffff1614156113a457600194506113a9565b600094505b5080806113b590612037565b915050611316565b50505092915050565b60008060026000858152602001908152602001600020600201805480602002602001604051908101604052809291908181526020016000905b8282101561144f57838290600052602060002090600302016040518060600160405290816000820154815260200160018201548152602001600282015481525050815260200190600101906113ff565b50505050905060008151905060005b818110156114cd5760008382815181106114a1577f4e487b7100000000000000000000000000000000000000000000000000000000600052603260045260246000fd5b6020026020010151600001519050858114156114bb578194505b50806114c690612037565b905061145e565b50505092915050565b60008060009054906101000a900473ffffffffffffffffffffffffffffffffffffffff169050816000806101000a81548173ffffffffffffffffffffffffffffffffffffffff021916908373ffffffffffffffffffffffffffffffffffffffff1602179055508173ffffffffffffffffffffffffffffffffffffffff168173ffffffffffffffffffffffffffffffffffffffff167f8be0079c531659141344cd1fd0a4f28419497f9722a3daafe3b4186f6b6457e060405160405180910390a35050565b6000813590506115a981612269565b92915050565b60008083601f8401126115c157600080fd5b8235905067ffffffffffffffff8111156115da57600080fd5b6020830191508360208202830111156115f257600080fd5b9250929050565b60008135905061160881612280565b92915050565b60008135905061161d81612297565b92915050565b600081359050611632816122ae565b92915050565b60006020828403121561164a57600080fd5b60006116588482850161159a565b91505092915050565b6000806040838503121561167457600080fd5b60006116828582860161159a565b925050602061169385828601611623565b9150509250929050565b600080600080608085870312156116b357600080fd5b60006116c18782880161159a565b94505060206116d287828801611623565b93505060406116e387828801611623565b92505060606116f487828801611623565b91505092959194509250565b60008060008060008060a0878903121561171957600080fd5b600061172789828a0161160e565b965050602061173889828a01611623565b955050604061174989828a01611623565b945050606061175a89828a01611623565b935050608087013567ffffffffffffffff81111561177757600080fd5b61178389828a016115af565b92509250509295509295509295565b6000602082840312156117a457600080fd5b60006117b284828501611623565b91505092915050565b6000806000606084860312156117d057600080fd5b60006117de86828701611623565b93505060206117ef8682870161159a565b925050604061180086828701611623565b9150509250925092565b6000806040838503121561181d57600080fd5b600061182b85828601611623565b925050602061183c858286016115f9565b9150509250929050565b6000806040838503121561185957600080fd5b600061186785828601611623565b925050602061187885828601611623565b9150509250929050565b600061188e8383611b38565b60608301905092915050565b60006118a68383611b7a565b60608301905092915050565b60006118be8383611bbc565b60608301905092915050565b6118d381611fe5565b82525050565b6118e281611fe5565b82525050565b60006118f382611ea9565b6118fd8185611ef1565b935061190883611e79565b8060005b838110156119395781516119208882611882565b975061192b83611eca565b92505060018101905061190c565b5085935050505092915050565b600061195182611eb4565b61195b8185611f02565b935061196683611e89565b8060005b8381101561199757815161197e888261189a565b975061198983611ed7565b92505060018101905061196a565b5085935050505092915050565b60006119af82611ebf565b6119b98185611f13565b93506119c483611e99565b8060005b838110156119f55781516119dc88826118b2565b97506119e783611ee4565b9250506001810190506119c8565b5085935050505092915050565b611a0b81612003565b82525050565b611a1a81612003565b82525050565b6000611a2d602a83611f24565b9150611a38826120af565b604082019050919050565b6000611a50602683611f24565b9150611a5b826120fe565b604082019050919050565b6000611a73602683611f24565b9150611a7e8261214d565b604082019050919050565b6000611a96601483611f24565b9150611aa18261219c565b602082019050919050565b6000611ab9601883611f24565b9150611ac4826121c5565b602082019050919050565b6000611adc601c83611f24565b9150611ae7826121ee565b602082019050919050565b6000611aff602083611f24565b9150611b0a82612217565b602082019050919050565b6000611b22601e83611f24565b9150611b2d82612240565b602082019050919050565b606082016000820151611b4e6000850182611bfe565b506020820151611b616020850182611a02565b506040820151611b746040850182611bfe565b50505050565b606082016000820151611b9060008501826118ca565b506020820151611ba36020850182611bfe565b506040820151611bb66040850182611bfe565b50505050565b606082016000820151611bd26000850182611bfe565b506020820151611be56020850182611bfe565b506040820151611bf86040850182611bfe565b50505050565b611c078161202d565b82525050565b611c168161202d565b82525050565b6000602082019050611c3160008301846118d9565b92915050565b6000606082019050611c4c60008301866118d9565b611c596020830185611c0d565b611c666040830184611c0d565b949350505050565b60006020820190508181036000830152611c8881846118e8565b905092915050565b60006020820190508181036000830152611caa8184611946565b905092915050565b60006020820190508181036000830152611ccc81846119a4565b905092915050565b600060a082019050611ce96000830188611a11565b611cf66020830187611c0d565b611d036040830186611c0d565b611d106060830185611c0d565b611d1d60808301846118d9565b9695505050505050565b60006020820190508181036000830152611d4081611a20565b9050919050565b60006020820190508181036000830152611d6081611a43565b9050919050565b60006020820190508181036000830152611d8081611a66565b9050919050565b60006020820190508181036000830152611da081611a89565b9050919050565b60006020820190508181036000830152611dc081611aac565b9050919050565b60006020820190508181036000830152611de081611acf565b9050919050565b60006020820190508181036000830152611e0081611af2565b9050919050565b60006020820190508181036000830152611e2081611b15565b9050919050565b6000602082019050611e3c6000830184611c0d565b92915050565b6000606082019050611e576000830186611c0d565b611e646020830185611c0d565b611e716040830184611c0d565b949350505050565b6000819050602082019050919050565b6000819050602082019050919050565b6000819050602082019050919050565b600081519050919050565b600081519050919050565b600081519050919050565b6000602082019050919050565b6000602082019050919050565b6000602082019050919050565b600082825260208201905092915050565b600082825260208201905092915050565b600082825260208201905092915050565b600082825260208201905092915050565b6000611f408261202d565b9150611f4b8361202d565b9250827fffffffffffffffffffffffffffffffffffffffffffffffffffffffffffffffff03821115611f8057611f7f612080565b5b828201905092915050565b6000611f968261202d565b9150611fa18361202d565b9250817fffffffffffffffffffffffffffffffffffffffffffffffffffffffffffffffff0483118215151615611fda57611fd9612080565b5b828202905092915050565b6000611ff08261200d565b9050919050565b60008115159050919050565b6000819050919050565b600073ffffffffffffffffffffffffffffffffffffffff82169050919050565b6000819050919050565b60006120428261202d565b91507fffffffffffffffffffffffffffffffffffffffffffffffffffffffffffffffff82141561207557612074612080565b5b600182019050919050565b7f4e487b7100000000000000000000000000000000000000000000000000000000600052601160045260246000fd5b7f596f7520616c726561647920766f74656420746f206f6e65206f66207468652060008201527f63616e6469646174657300000000000000000000000000000000000000000000602082015250565b7f4f776e61626c653a206e6577206f776e657220697320746865207a65726f206160008201527f6464726573730000000000000000000000000000000000000000000000000000602082015250565b7f4475726174696f6e206f662074686520766f74696e672073657373696f6e206960008201527f73206f7665720000000000000000000000000000000000000000000000000000602082015250565b7f596f7520617265206e6f74207665726966696564000000000000000000000000600082015250565b7f596f752061726520616c72656164792076657269666965640000000000000000600082015250565b7f596f7520617265206e6f74206120766572696669656420766f74657200000000600082015250565b7f4f776e61626c653a2063616c6c6572206973206e6f7420746865206f776e6572600082015250565b7f566f74696e672073657373696f6e20686173206e6f7420737461727465640000600082015250565b61227281611fe5565b811461227d57600080fd5b50565b61228981611ff7565b811461229457600080fd5b50565b6122a081612003565b81146122ab57600080fd5b50565b6122b78161202d565b81146122c257600080fd5b5056fea264697066735822122090947b493e8956b534a8c6744a0d2f10e75778c3d2a1848d2f507484d2743c0064736f6c63430008040033",
  "linkReferences": {},
  "deployedLinkReferences": {}
}