{
  "_format": "hh-sol-artifact-1",
  "contractName": "Voting",
  "sourceName": "contracts/Voting.sol",
  "abi": [
    {
      "anonymous": false,
      "inputs": [
        {
          "indexed": true,
          "internalType": "address",
          "name": "previousOwner",
          "type": "address"
        },
        {
          "indexed": true,
          "internalType": "address",
          "name": "newOwner",
          "type": "address"
        }
      ],
      "name": "OwnershipTransferred",
      "type": "event"
    },
    {
      "inputs": [
        {
          "internalType": "bytes32",
          "name": "_title",
          "type": "bytes32"
        },
        {
          "internalType": "uint256",
          "name": "_duration",
          "type": "uint256"
        },
        {
          "internalType": "uint256",
          "name": "_startTime",
          "type": "uint256"
        },
        {
          "internalType": "uint256",
          "name": "_roomId",
          "type": "uint256"
        },
        {
          "internalType": "bytes32[]",
          "name": "_candidates",
          "type": "bytes32[]"
        }
      ],
      "name": "createVoting",
      "outputs": [],
      "stateMutability": "nonpayable",
      "type": "function"
    },
    {
      "inputs": [
        {
          "internalType": "uint256",
          "name": "_votingId",
          "type": "uint256"
        }
      ],
      "name": "getCandidates",
      "outputs": [
        {
          "components": [
            {
              "internalType": "uint256",
              "name": "candidateId",
              "type": "uint256"
            },
            {
              "internalType": "bytes32",
              "name": "candidate",
              "type": "bytes32"
            },
            {
              "internalType": "uint256",
              "name": "votes",
              "type": "uint256"
            }
          ],
          "internalType": "struct Voting.Candidate[]",
          "name": "candidates",
          "type": "tuple[]"
        }
      ],
      "stateMutability": "view",
      "type": "function"
    },
    {
      "inputs": [
        {
          "internalType": "uint256",
          "name": "_votingId",
          "type": "uint256"
        }
      ],
      "name": "getHistory",
      "outputs": [
        {
          "components": [
            {
              "internalType": "address",
              "name": "voter",
              "type": "address"
            },
            {
              "internalType": "uint256",
              "name": "candidateId",
              "type": "uint256"
            },
            {
              "internalType": "uint256",
              "name": "timeStamp",
              "type": "uint256"
            }
          ],
          "internalType": "struct Voting.History[]",
          "name": "history",
          "type": "tuple[]"
        }
      ],
      "stateMutability": "view",
      "type": "function"
    },
    {
      "inputs": [
        {
          "internalType": "address",
          "name": "_voter",
          "type": "address"
        }
      ],
      "name": "getVoterHistory",
      "outputs": [
        {
          "components": [
            {
              "internalType": "uint256",
              "name": "roomId",
              "type": "uint256"
            },
            {
              "internalType": "uint256",
              "name": "candidateId",
              "type": "uint256"
            },
            {
              "internalType": "uint256",
              "name": "timeStamp",
              "type": "uint256"
            }
          ],
          "internalType": "struct Voting.voterHistory[]",
          "name": "",
          "type": "tuple[]"
        }
      ],
      "stateMutability": "view",
      "type": "function"
    },
    {
      "inputs": [
        {
          "internalType": "uint256",
          "name": "",
          "type": "uint256"
        }
      ],
      "name": "indexToRoomId",
      "outputs": [
        {
          "internalType": "uint256",
          "name": "",
          "type": "uint256"
        }
      ],
      "stateMutability": "view",
      "type": "function"
    },
    {
      "inputs": [],
      "name": "owner",
      "outputs": [
        {
          "internalType": "address",
          "name": "",
          "type": "address"
        }
      ],
      "stateMutability": "view",
      "type": "function"
    },
    {
      "inputs": [],
      "name": "renounceOwnership",
      "outputs": [],
      "stateMutability": "nonpayable",
      "type": "function"
    },
    {
      "inputs": [
        {
          "internalType": "address",
          "name": "newOwner",
          "type": "address"
        }
      ],
      "name": "transferOwnership",
      "outputs": [],
      "stateMutability": "nonpayable",
      "type": "function"
    },
    {
      "inputs": [
        {
          "internalType": "uint256",
          "name": "_votingId",
          "type": "uint256"
        },
        {
          "internalType": "bool",
          "name": "_isVerified",
          "type": "bool"
        }
      ],
      "name": "verifyVoter",
      "outputs": [],
      "stateMutability": "nonpayable",
      "type": "function"
    },
    {
      "inputs": [
        {
          "internalType": "uint256",
          "name": "_votingId",
          "type": "uint256"
        },
        {
          "internalType": "address",
          "name": "_voter",
          "type": "address"
        },
        {
          "internalType": "uint256",
          "name": "_candidate",
          "type": "uint256"
        }
      ],
      "name": "vote",
      "outputs": [],
      "stateMutability": "nonpayable",
      "type": "function"
    },
    {
      "inputs": [
        {
          "internalType": "address",
          "name": "",
          "type": "address"
        },
        {
          "internalType": "uint256",
          "name": "",
          "type": "uint256"
        }
      ],
      "name": "voterToHistory",
      "outputs": [
        {
          "internalType": "uint256",
          "name": "roomId",
          "type": "uint256"
        },
        {
          "internalType": "uint256",
          "name": "candidateId",
          "type": "uint256"
        },
        {
          "internalType": "uint256",
          "name": "timeStamp",
          "type": "uint256"
        }
      ],
      "stateMutability": "view",
      "type": "function"
    },
    {
      "inputs": [
        {
          "internalType": "uint256",
          "name": "",
          "type": "uint256"
        },
        {
          "internalType": "uint256",
          "name": "",
          "type": "uint256"
        }
      ],
      "name": "voterVerified",
      "outputs": [
        {
          "internalType": "address",
          "name": "",
          "type": "address"
        }
      ],
      "stateMutability": "view",
      "type": "function"
    },
    {
      "inputs": [],
      "name": "votingCount",
      "outputs": [
        {
          "internalType": "uint256",
          "name": "",
          "type": "uint256"
        }
      ],
      "stateMutability": "view",
      "type": "function"
    },
    {
      "inputs": [
        {
          "internalType": "uint256",
          "name": "",
          "type": "uint256"
        }
      ],
      "name": "votingDetails",
      "outputs": [
        {
          "internalType": "bytes32",
          "name": "title",
          "type": "bytes32"
        },
        {
          "internalType": "uint256",
          "name": "duration",
          "type": "uint256"
        },
        {
          "internalType": "uint256",
          "name": "startTime",
          "type": "uint256"
        },
        {
          "internalType": "uint256",
          "name": "roomId",
          "type": "uint256"
        },
        {
          "internalType": "address",
          "name": "proposer",
          "type": "address"
        }
      ],
      "stateMutability": "view",
      "type": "function"
    },
    {
      "inputs": [
        {
          "internalType": "uint256",
          "name": "",
          "type": "uint256"
        },
        {
          "internalType": "uint256",
          "name": "",
          "type": "uint256"
        }
      ],
      "name": "votingHistory",
      "outputs": [
        {
          "internalType": "address",
          "name": "voter",
          "type": "address"
        },
        {
          "internalType": "uint256",
          "name": "candidateId",
          "type": "uint256"
        },
        {
          "internalType": "uint256",
          "name": "timeStamp",
          "type": "uint256"
        }
      ],
      "stateMutability": "view",
      "type": "function"
    }
  ],
  "bytecode": "0x60806040526001805534801561001457600080fd5b5061003161002661003660201b60201c565b61003e60201b60201c565b610102565b600033905090565b60008060009054906101000a900473ffffffffffffffffffffffffffffffffffffffff169050816000806101000a81548173ffffffffffffffffffffffffffffffffffffffff021916908373ffffffffffffffffffffffffffffffffffffffff1602179055508173ffffffffffffffffffffffffffffffffffffffff168173ffffffffffffffffffffffffffffffffffffffff167f8be0079c531659141344cd1fd0a4f28419497f9722a3daafe3b4186f6b6457e060405160405180910390a35050565b61226880620001126000396000f3fe608060405234801561001057600080fd5b50600436106100f55760003560e01c8063715018a611610097578063c8691b2a11610066578063c8691b2a1461029c578063e6644d69146102cc578063f2fde38b14610300578063facb97491461031c576100f5565b8063715018a6146102265780638da5cb5b14610230578063b424ab841461024e578063be9f9e791461026c576100f5565b80633e39a7a5116100d35780633e39a7a514610176578063448b5daf146101a65780634de8737c146101d857806356a256c6146101f4576100f5565b80630925f368146100fa578063094e271b1461012a5780631f0d113e14610146575b600080fd5b610114600480360381019061010f91906117b3565b610338565b6040516101219190611b89565b60405180910390f35b610144600480360381019061013f919061166d565b610386565b005b610160600480360381019061015b91906116ff565b6105b5565b60405161016d9190611d94565b60405180910390f35b610190600480360381019061018b91906116ff565b6105cd565b60405161019d9190611bdb565b60405180910390f35b6101c060048036038101906101bb9190611631565b610660565b6040516101cf93929190611daf565b60405180910390f35b6101f260048036038101906101ed9190611728565b6106a7565b005b61020e600480360381019061020991906117b3565b610b9b565b60405161021d93929190611ba4565b60405180910390f35b61022e610c02565b005b610238610c8a565b6040516102459190611b89565b60405180910390f35b610256610cb3565b6040516102639190611d94565b60405180910390f35b61028660048036038101906102819190611608565b610cb9565b6040516102939190611c1f565b60405180910390f35b6102b660048036038101906102b191906116ff565b610d7b565b6040516102c39190611bfd565b60405180910390f35b6102e660048036038101906102e191906116ff565b610e57565b6040516102f7959493929190611c41565b60405180910390f35b61031a60048036038101906103159190611608565b610ead565b005b61033660048036038101906103319190611777565b610fa5565b005b6005602052816000526040600020818154811061035457600080fd5b906000526020600020016000915091509054906101000a900473ffffffffffffffffffffffffffffffffffffffff1681565b61038e6110ad565b73ffffffffffffffffffffffffffffffffffffffff166103ac610c8a565b73ffffffffffffffffffffffffffffffffffffffff1614610402576040517f08c379a00000000000000000000000000000000000000000000000000000000081526004016103f990611d54565b60405180910390fd5b60006003600060015481526020019081526020016000209050868160000181905550858160010181905550600083839050905060005b8181101561050b57600085858381811061047b577f4e487b7100000000000000000000000000000000000000000000000000000000600052603260045260246000fd5b9050602002013590508360020160405180606001604052806001856104a09190611ea2565b8152602001838152602001600081525090806001815401808255809150506001900390600052602060002090600302016000909190919091506000820151816000015560208201518160010155604082015181600201555050508061050490611fa4565b9050610438565b5042610e108761051b9190611ef8565b6105259190611ea2565b8260030181905550848260040181905550338260050160006101000a81548173ffffffffffffffffffffffffffffffffffffffff021916908373ffffffffffffffffffffffffffffffffffffffff1602179055508460026000600154815260200190815260200160002081905550600160008154809291906105a690611fa4565b91905055505050505050505050565b60026020528060005260406000206000915090505481565b606060036000838152602001908152602001600020600201805480602002602001604051908101604052809291908181526020016000905b828210156106555783829060005260206000209060030201604051806060016040529081600082015481526020016001820154815260200160028201548152505081526020019060010190610605565b505050509050919050565b6006602052816000526040600020818154811061067c57600080fd5b9060005260206000209060030201600091509150508060000154908060010154908060020154905083565b6000600360008581526020019081526020016000206040518060c0016040529081600082015481526020016001820154815260200160028201805480602002602001604051908101604052809291908181526020016000905b828210156107505783829060005260206000209060030201604051806060016040529081600082015481526020016001820154815260200160028201548152505081526020019060010190610700565b50505050815260200160038201548152602001600482015481526020016005820160009054906101000a900473ffffffffffffffffffffffffffffffffffffffff1673ffffffffffffffffffffffffffffffffffffffff1673ffffffffffffffffffffffffffffffffffffffff1681525050905060006107d085856110b5565b905060006107de8686611205565b90506000836060015190506000846020015190506000610e10826108029190611ef8565b8361080d9190611ea2565b90506001151585151514610856576040517f08c379a000000000000000000000000000000000000000000000000000000000815260040161084d90611cf4565b60405180910390fd5b600015158415151461089d576040517f08c379a000000000000000000000000000000000000000000000000000000000815260040161089490611c94565b60405180910390fd5b4283106108df576040517f08c379a00000000000000000000000000000000000000000000000000000000081526004016108d690611d74565b60405180910390fd5b428111610921576040517f08c379a000000000000000000000000000000000000000000000000000000000815260040161091890611cd4565b60405180910390fd5b600061092d8a89611396565b90506000600360008c815260200190815260200160002060020190506001818381548110610984577f4e487b7100000000000000000000000000000000000000000000000000000000600052603260045260246000fd5b9060005260206000209060030201600201546109a09190611ea2565b8183815481106109d9577f4e487b7100000000000000000000000000000000000000000000000000000000600052603260045260246000fd5b906000526020600020906003020160020181905550600460008c815260200190815260200160002060405180606001604052808c73ffffffffffffffffffffffffffffffffffffffff1681526020018b81526020016103e842610a3c9190611ef8565b815250908060018154018082558091505060019003906000526020600020906003020160009091909190915060008201518160000160006101000a81548173ffffffffffffffffffffffffffffffffffffffff021916908373ffffffffffffffffffffffffffffffffffffffff160217905550602082015181600101556040820151816002015550506000600260008d8152602001908152602001600020549050600660008c73ffffffffffffffffffffffffffffffffffffffff1673ffffffffffffffffffffffffffffffffffffffff16815260200190815260200160002060405180606001604052808381526020018c81526020016103e842610b419190611ef8565b81525090806001815401808255809150506001900390600052602060002090600302016000909190919091506000820151816000015560208201518160010155604082015181600201555050505050505050505050505050565b60046020528160005260406000208181548110610bb757600080fd5b9060005260206000209060030201600091509150508060000160009054906101000a900473ffffffffffffffffffffffffffffffffffffffff16908060010154908060020154905083565b610c0a6110ad565b73ffffffffffffffffffffffffffffffffffffffff16610c28610c8a565b73ffffffffffffffffffffffffffffffffffffffff1614610c7e576040517f08c379a0000000000000000000000000000000000000000000000000000000008152600401610c7590611d54565b60405180910390fd5b610c8860006114a6565b565b60008060009054906101000a900473ffffffffffffffffffffffffffffffffffffffff16905090565b60015481565b60606000600660008473ffffffffffffffffffffffffffffffffffffffff1673ffffffffffffffffffffffffffffffffffffffff168152602001908152602001600020805480602002602001604051908101604052809291908181526020016000905b82821015610d6c5783829060005260206000209060030201604051806060016040529081600082015481526020016001820154815260200160028201548152505081526020019060010190610d1c565b50505050905080915050919050565b606060046000838152602001908152602001600020805480602002602001604051908101604052809291908181526020016000905b82821015610e4c57838290600052602060002090600302016040518060600160405290816000820160009054906101000a900473ffffffffffffffffffffffffffffffffffffffff1673ffffffffffffffffffffffffffffffffffffffff1673ffffffffffffffffffffffffffffffffffffffff1681526020016001820154815260200160028201548152505081526020019060010190610db0565b505050509050919050565b60036020528060005260406000206000915090508060000154908060010154908060030154908060040154908060050160009054906101000a900473ffffffffffffffffffffffffffffffffffffffff16905085565b610eb56110ad565b73ffffffffffffffffffffffffffffffffffffffff16610ed3610c8a565b73ffffffffffffffffffffffffffffffffffffffff1614610f29576040517f08c379a0000000000000000000000000000000000000000000000000000000008152600401610f2090611d54565b60405180910390fd5b600073ffffffffffffffffffffffffffffffffffffffff168173ffffffffffffffffffffffffffffffffffffffff161415610f99576040517f08c379a0000000000000000000000000000000000000000000000000000000008152600401610f9090611cb4565b60405180910390fd5b610fa2816114a6565b50565b6000610fb183336110b5565b905081610ff3576040517f08c379a0000000000000000000000000000000000000000000000000000000008152600401610fea90611d34565b60405180910390fd5b8015611034576040517f08c379a000000000000000000000000000000000000000000000000000000000815260040161102b90611d14565b60405180910390fd5b60056000848152602001908152602001600020339080600181540180825580915050600190039060005260206000200160009091909190916101000a81548173ffffffffffffffffffffffffffffffffffffffff021916908373ffffffffffffffffffffffffffffffffffffffff160217905550505050565b600033905090565b6000806005600085815260200190815260200160002080548060200260200160405190810160405280929190818152602001828054801561114b57602002820191906000526020600020905b8160009054906101000a900473ffffffffffffffffffffffffffffffffffffffff1673ffffffffffffffffffffffffffffffffffffffff1681526020019060010190808311611101575b5050505050905060008151905060005b818110156111fc57600083828151811061119e577f4e487b7100000000000000000000000000000000000000000000000000000000600052603260045260246000fd5b602002602001015190508573ffffffffffffffffffffffffffffffffffffffff168173ffffffffffffffffffffffffffffffffffffffff1614156111e557600194506111ea565b600094505b50806111f590611fa4565b905061115b565b50505092915050565b60008060046000858152602001908152602001600020805480602002602001604051908101604052809291908181526020016000905b828210156112d757838290600052602060002090600302016040518060600160405290816000820160009054906101000a900473ffffffffffffffffffffffffffffffffffffffff1673ffffffffffffffffffffffffffffffffffffffff1673ffffffffffffffffffffffffffffffffffffffff168152602001600182015481526020016002820154815250508152602001906001019061123b565b50505050905060008151905060005b8181101561138d576000838281518110611329577f4e487b7100000000000000000000000000000000000000000000000000000000600052603260045260246000fd5b60200260200101516000015190508573ffffffffffffffffffffffffffffffffffffffff168173ffffffffffffffffffffffffffffffffffffffff1614156113745760019450611379565b600094505b50808061138590611fa4565b9150506112e6565b50505092915050565b60008060036000858152602001908152602001600020600201805480602002602001604051908101604052809291908181526020016000905b8282101561141f57838290600052602060002090600302016040518060600160405290816000820154815260200160018201548152602001600282015481525050815260200190600101906113cf565b50505050905060008151905060005b8181101561149d576000838281518110611471577f4e487b7100000000000000000000000000000000000000000000000000000000600052603260045260246000fd5b60200260200101516000015190508581141561148b578194505b508061149690611fa4565b905061142e565b50505092915050565b60008060009054906101000a900473ffffffffffffffffffffffffffffffffffffffff169050816000806101000a81548173ffffffffffffffffffffffffffffffffffffffff021916908373ffffffffffffffffffffffffffffffffffffffff1602179055508173ffffffffffffffffffffffffffffffffffffffff168173ffffffffffffffffffffffffffffffffffffffff167f8be0079c531659141344cd1fd0a4f28419497f9722a3daafe3b4186f6b6457e060405160405180910390a35050565b600081359050611579816121d6565b92915050565b60008083601f84011261159157600080fd5b8235905067ffffffffffffffff8111156115aa57600080fd5b6020830191508360208202830111156115c257600080fd5b9250929050565b6000813590506115d8816121ed565b92915050565b6000813590506115ed81612204565b92915050565b6000813590506116028161221b565b92915050565b60006020828403121561161a57600080fd5b60006116288482850161156a565b91505092915050565b6000806040838503121561164457600080fd5b60006116528582860161156a565b9250506020611663858286016115f3565b9150509250929050565b60008060008060008060a0878903121561168657600080fd5b600061169489828a016115de565b96505060206116a589828a016115f3565b95505060406116b689828a016115f3565b94505060606116c789828a016115f3565b935050608087013567ffffffffffffffff8111156116e457600080fd5b6116f089828a0161157f565b92509250509295509295509295565b60006020828403121561171157600080fd5b600061171f848285016115f3565b91505092915050565b60008060006060848603121561173d57600080fd5b600061174b868287016115f3565b935050602061175c8682870161156a565b925050604061176d868287016115f3565b9150509250925092565b6000806040838503121561178a57600080fd5b6000611798858286016115f3565b92505060206117a9858286016115c9565b9150509250929050565b600080604083850312156117c657600080fd5b60006117d4858286016115f3565b92505060206117e5858286016115f3565b9150509250929050565b60006117fb8383611aa5565b60608301905092915050565b60006118138383611ae7565b60608301905092915050565b600061182b8383611b29565b60608301905092915050565b61184081611f52565b82525050565b61184f81611f52565b82525050565b600061186082611e16565b61186a8185611e5e565b935061187583611de6565b8060005b838110156118a657815161188d88826117ef565b975061189883611e37565b925050600181019050611879565b5085935050505092915050565b60006118be82611e21565b6118c88185611e6f565b93506118d383611df6565b8060005b838110156119045781516118eb8882611807565b97506118f683611e44565b9250506001810190506118d7565b5085935050505092915050565b600061191c82611e2c565b6119268185611e80565b935061193183611e06565b8060005b83811015611962578151611949888261181f565b975061195483611e51565b925050600181019050611935565b5085935050505092915050565b61197881611f70565b82525050565b61198781611f70565b82525050565b600061199a602a83611e91565b91506119a58261201c565b604082019050919050565b60006119bd602683611e91565b91506119c88261206b565b604082019050919050565b60006119e0602683611e91565b91506119eb826120ba565b604082019050919050565b6000611a03601483611e91565b9150611a0e82612109565b602082019050919050565b6000611a26601883611e91565b9150611a3182612132565b602082019050919050565b6000611a49601c83611e91565b9150611a548261215b565b602082019050919050565b6000611a6c602083611e91565b9150611a7782612184565b602082019050919050565b6000611a8f601e83611e91565b9150611a9a826121ad565b602082019050919050565b606082016000820151611abb6000850182611b6b565b506020820151611ace602085018261196f565b506040820151611ae16040850182611b6b565b50505050565b606082016000820151611afd6000850182611837565b506020820151611b106020850182611b6b565b506040820151611b236040850182611b6b565b50505050565b606082016000820151611b3f6000850182611b6b565b506020820151611b526020850182611b6b565b506040820151611b656040850182611b6b565b50505050565b611b7481611f9a565b82525050565b611b8381611f9a565b82525050565b6000602082019050611b9e6000830184611846565b92915050565b6000606082019050611bb96000830186611846565b611bc66020830185611b7a565b611bd36040830184611b7a565b949350505050565b60006020820190508181036000830152611bf58184611855565b905092915050565b60006020820190508181036000830152611c1781846118b3565b905092915050565b60006020820190508181036000830152611c398184611911565b905092915050565b600060a082019050611c56600083018861197e565b611c636020830187611b7a565b611c706040830186611b7a565b611c7d6060830185611b7a565b611c8a6080830184611846565b9695505050505050565b60006020820190508181036000830152611cad8161198d565b9050919050565b60006020820190508181036000830152611ccd816119b0565b9050919050565b60006020820190508181036000830152611ced816119d3565b9050919050565b60006020820190508181036000830152611d0d816119f6565b9050919050565b60006020820190508181036000830152611d2d81611a19565b9050919050565b60006020820190508181036000830152611d4d81611a3c565b9050919050565b60006020820190508181036000830152611d6d81611a5f565b9050919050565b60006020820190508181036000830152611d8d81611a82565b9050919050565b6000602082019050611da96000830184611b7a565b92915050565b6000606082019050611dc46000830186611b7a565b611dd16020830185611b7a565b611dde6040830184611b7a565b949350505050565b6000819050602082019050919050565b6000819050602082019050919050565b6000819050602082019050919050565b600081519050919050565b600081519050919050565b600081519050919050565b6000602082019050919050565b6000602082019050919050565b6000602082019050919050565b600082825260208201905092915050565b600082825260208201905092915050565b600082825260208201905092915050565b600082825260208201905092915050565b6000611ead82611f9a565b9150611eb883611f9a565b9250827fffffffffffffffffffffffffffffffffffffffffffffffffffffffffffffffff03821115611eed57611eec611fed565b5b828201905092915050565b6000611f0382611f9a565b9150611f0e83611f9a565b9250817fffffffffffffffffffffffffffffffffffffffffffffffffffffffffffffffff0483118215151615611f4757611f46611fed565b5b828202905092915050565b6000611f5d82611f7a565b9050919050565b60008115159050919050565b6000819050919050565b600073ffffffffffffffffffffffffffffffffffffffff82169050919050565b6000819050919050565b6000611faf82611f9a565b91507fffffffffffffffffffffffffffffffffffffffffffffffffffffffffffffffff821415611fe257611fe1611fed565b5b600182019050919050565b7f4e487b7100000000000000000000000000000000000000000000000000000000600052601160045260246000fd5b7f596f7520616c726561647920766f74656420746f206f6e65206f66207468652060008201527f63616e6469646174657300000000000000000000000000000000000000000000602082015250565b7f4f776e61626c653a206e6577206f776e657220697320746865207a65726f206160008201527f6464726573730000000000000000000000000000000000000000000000000000602082015250565b7f4475726174696f6e206f662074686520766f74696e672073657373696f6e206960008201527f73206f7665720000000000000000000000000000000000000000000000000000602082015250565b7f596f7520617265206e6f74207665726966696564000000000000000000000000600082015250565b7f596f752061726520616c72656164792076657269666965640000000000000000600082015250565b7f596f7520617265206e6f74206120766572696669656420766f74657200000000600082015250565b7f4f776e61626c653a2063616c6c6572206973206e6f7420746865206f776e6572600082015250565b7f566f74696e672073657373696f6e20686173206e6f7420737461727465640000600082015250565b6121df81611f52565b81146121ea57600080fd5b50565b6121f681611f64565b811461220157600080fd5b50565b61220d81611f70565b811461221857600080fd5b50565b61222481611f9a565b811461222f57600080fd5b5056fea2646970667358221220154f02ce8187d02c09b328bcfe8f5ce476962dbadb9b5b4d5432ac4526bfc45e64736f6c63430008040033",
  "linkReferences": {},
  "deployedLinkReferences": {}
}